:020000040800F2
:1000000090070020B501000899310008B52F0008BD
:1000100095310008A10E0008913900080000000089
:10002000000000000000000000000000E9330008AC
:10003000B50E000800000000093200084134000835
:10004000CF010008CF010008CF010008CF01000850
:10005000CF010008CF010008CF010008CF01000840
:10006000CF010008CF010008CF010008CF01000830
:10007000CF010008A50E0008CF010008CF0100083D
:10008000CF010008CF010008CF010008CF01000810
:10009000CF010008CF010008CF010008CF01000800
:1000A000CF010008CF010008CF010008CF010008F0
:1000B000CF010008CF010008CF010008CF010008E0
:1000C000CF010008CF010008CF0100084932000825
:1000D000CF010008CF010008CF010008CF010008C0
:1000E000CF010008CF010008CF01000800F002F89E
:1000F00000F050F80AA090E8000C82448344AAF172
:100100000107DA4501D100F045F8AFF2090EBAE86F
:100110000F0013F0010F18BFFB1A43F0010318473B
:10012000185D0000385D0000103A24BF78C878C11F
:10013000FAD8520724BF30C830C144BF04680C60ED
:10014000704700000023002400250026103A28BF35
:1001500078C1FBD8520728BF30C148BF0B60704739
:10016000662905F08D83732900F0DC830020704739
:100170001FB59DE8030000F095FC00F077FC04003B
:100180000020002105F066FBE06000F07DF81FBD57
:1001900010B510BD00F041FC1146FFF7E9FF04F077
:1001A00017FF00F0ADFD03B4FFF7F2FF03BC00F052
:1001B00039F900000948804709480047FEE7FEE793
:1001C000FEE7FEE7FEE7FEE7FEE7FEE7FEE7FEE707
:1001D00004480549054A064B7047000049340008A9
:1001E000ED000008900100209007002090030020FF
:1001F0009003002010B5431C02E010F8011B71B100
:100200008107FAD14FF0013202C88C1A8C4314EAEC
:10021000C211F9D0C01A0A0603D0C01E10BDC01A00
:1002200010BD0A0401D0801E10BD0902FCD0401E82
:1002300010BD4FF0000200B5134694469646203993
:1002400022BFA0E80C50A0E80C50B1F12001BFF48F
:10025000F7AF090728BFA0E80C5048BF0CC05DF8F5
:1002600004EB890028BF40F8042B08BF704748BF43
:1002700020F8022B11F0804F18BF00F8012B7047B7
:10028000704770477047000070B5064C7C44064DBF
:100290007D4404E02046016808448047241DAC42A8
:1002A000F8D170BDE45B0000E45B000070B50C4663
:1002B0000546012A05D02878800600D5EA69002382
:1002C00002E0012305E05B1C934202D2E05C0028BF
:1002D000F9D1A869E618C01AA861286A18442862EA
:1002E0002846AFF3008004E0D5E9012114F8010BA2
:1002F0009047B442F8D32846AFF3008070BD10B5E4
:10030000002000F013FBFFF743FFBDE81040012081
:1003100000F088B8032A40F2308010F0030C00F09F
:10032000158011F8013BBCF1020F624498BF11F82F
:1003300001CB00F8013B38BF11F8013BA2F10402E8
:1003400098BF00F801CB38BF00F8013B11F0030360
:1003500000F0F382083AC0F0088051F8043B083AF4
:1003600051F804CBA0E80810F5E7121D5CBF51F866
:10037000043B40F8043BAFF30080D20724BF11F8E0
:10038000013B11F801CB48BF11F8012B24BF00F845
:10039000013B00F801CB48BF00F8012B7047431A1E
:1003A00028BF9A427FF6B6AF10441144032A40F2A8
:1003B000268010F0030F1EBF11F8013D521E00F8F9
:1003C000013D10F0030F7FF4F6AF11F0030300F0CE
:1003D000F982083AC0F00B8051F8043D083A51F810
:1003E00004CD40F8043D40F804CDFFF7F3BF121DE3
:1003F0005CBF51F8043D40F8043DAFF30080D207E4
:1004000024BF11F8013D11F801CD48BF11F8012CAE
:1004100024BF00F8013D00F801CD48BF00F8012CD1
:100420007047000001491820ABBEFEE7260002001D
:10043000004870471000002070B5064600F012FB1F
:10044000056806F10B0020F00704B4429CBF0020B1
:1004500070BD2B466A68BAB11068A04210D304F18F
:10046000080188423CBF5068586007D35168101992
:1004700041601168091B016058601460101D70BD57
:1004800013465268002AE7D12146284600F0F6FAC2
:100490000028DED170BD70B50446051F00F0E2FAF9
:1004A0000068002C14BF446870BD002C18BFAC421B
:1004B0003CBF20466468F8D301680A18AA4218BFF6
:1004C000456003D12A680546114401602868411936
:1004D000A1421CBF6C6070BD6168696021680844FE
:1004E000286070BD2DE9FF4F0C461E464FF0FF37C8
:1004F0008BB0D2E90001DDF860800A908A46C1F332
:100500000A5505B93D46002108464FF00000BAF1F2
:10051000000F00F4400005DA00EB80004FF44001CA
:1005200001EA50004FEA9059B9F1010F00DDB946D8
:100530000A9850EA4A000ED044F61050A5F2FF3552
:1005400045432F14B8F1000F1ED07542291E1EDD41
:10055000C9F100021CE0B8F1010F4FF0000001D01A
:10056000302103E0F24305E02154401CB042FBDBA4
:1005700030460022002121540B99C1F80880C1E9BE
:1005800000200FB0BDE8F08FBD1B6D1CDEE74A46B2
:1005900000DA694206A800F041FB06AB93E80700C9
:1005A00003AB83E8070050460A9904F077FD8DE815
:1005B0000700A0F500501F3800900398002D0ADDB9
:1005C00042F21F014A460844002303A903906846EB
:1005D00004F0E0FF09E0A0F500504A461F38002370
:1005E00003A90390684604F0EAFF8DE807000004C1
:1005F000000C03D04FF0FF30410800E01046B8F186
:10060000000F03D00022009215461EE0751E05D48F
:1006100000F07EFA303262556D1EF9D5B3460122E4
:10062000084302D000227F1C04E02078302801D14A
:1006300000227F1E002A099784D01DE0112D07DAC1
:1006400000F066FA303262556D1C50EA0102F5D1B5
:10065000084302D00098C8B10EE00021681E05E0F2
:10066000235C625C63542254401E491C8142F7DBC8
:10067000AB46A81B401E0990002004F80B000B9805
:10068000099AC0F80880C0E9002B7AE711264FF0DC
:10069000000857E72DE9F04F88460446D21D22F0A6
:1006A000070191B0D1E90001CDE90A0105F0BEF8DA
:1006B00002460B98C00F01D02D2007E0206881076B
:1006C00001D52B2002E0202101EAC000032A099075
:1006D00001D0072A05DB03464146204600F05EFABA
:1006E0000BE12078800601D5E06900E00620B8F132
:1006F000650F814606D0B8F1660F18D0B8F1670FC4
:1007000070D131E00020B9F1110F009001DB11230D
:1007100001E009F101030AAA01A90CA8FFF7E2FE12
:10072000DDE90C70002609F10105834647E0012050
:100730004B4600904FF000470AAA01A90CA8FFF70A
:10074000D1FEDDE90DB00C995D46002610B909F126
:1007500001000D18B9EB050003D4C0F1FF3609F113
:100760000105A5EB09002BE0B9F1010F01DA4FF00B
:1007700001090020B9F1110F0090484601DD112355
:1007800000E003460AAA01A90CA8FFF7ABFEDDE9C9
:100790000C704D4600268346207800070AD4AB45EE
:1007A00000DA5D4601A8012D04DD411911F8011C94
:1007B000302907D04F4502DA17F1040F04DA01207F
:1007C00082460FE06D1EEEE7002F02DCED1B3E447B
:1007D00003E0781CA84200DD7D1CB81B00F1010A73
:1007E0004FF000472078000703D4AA4501DB4FF003
:1007F000FF3A0021B7F1004F0DF143088DF8431087
:1008000024D002202B23002F01DA7F422D230A213E
:10081000021EA0F1010000DC5FB197FBF1FC97FB29
:10082000F1F201FB1C7C17460CF1300C08F801CDED
:10083000EEE7A8F1010003702188090501D54521E3
:1008400000E06521A0F1010800F8011C09980FA93A
:10085000A1EB0807FF1D00B10120411901EBEA706F
:10086000A1693844081A401EA0612078C00602D44D
:100870002046AFF30080099828B1D4E901219047C0
:10088000206A401C20622078C00622D52046AFF3A3
:1008900000801EE0002E04DBB34502DD01A8805D70
:1008A00000E03020D4E901219047206A401C2062FA
:1008B000761CAAF101005FEA000A0AD100F0D6F81E
:1008C000C0680168405CD4E901219047206A401C5F
:1008D0002062281EA5F10105DCDC07E0D4E9012136
:1008E00018F8010B9047206A401C2062381EA7F1BF
:1008F0000107F3DC2046AFF30080032011B041E68E
:1009000010B5436913B1AFF3008001E0FFF7CEFCEF
:10091000012010BD127800F124010A7000224A70F3
:100920000122EDE711684FF0FF32E9E710B500F062
:10093000F5F9BDE8104000F0ECB910B5203AC0F070
:100940000B80B1E81850A0E81850B1E81850A0E8A2
:100950001850203ABFF4F5AF5FEA027C24BFB1E83B
:100960001850A0E8185044BF18C918C0BDE810407E
:100970005FEA827C24BF51F8043B40F8043B08BF87
:100980007047D20728BF31F8023B48BF11F8012B4E
:1009900028BF20F8023B48BF00F8012B7047431ADC
:1009A00028BF9A427FF6C9AF1044114410F0030FDC
:1009B0001EBF11F8013D521E00F8013D10F0030F5B
:1009C0007FF4F6AF103AC0F00A8010B531E9185044
:1009D00020E91850103ABFF4F9AFBDE810405307B2
:1009E00024BF31E9081020E9081044BF51F8043D44
:1009F00040F8043D12F0030F08BF7047D20728BF2C
:100A000031F8023D48BF11F8012C28BF20F8023D03
:100A100048BF00F8012C704770477546FFF708FD86
:100A2000AE4605006946534620F00700854618B0DB
:100A300020B5FFF7CDFBBDE820404FF000064FF09A
:100A400000074FF000084FF0000BAC46ACE8C009BF
:100A5000ACE8C009ACE8C009ACE8C00921F0070166
:100A60008D467047004870471800002000487047C6
:100A700030000020704770477047704738B5044613
:100A80000A4600206946AFF30080002808BF38BD41
:100A900002460099204600F059F9012038BD012096
:100AA00000F087B9F8B5AFF30080054600200C468A
:100AB000102000BF0646A819A0420DD9324669464B
:100AC0000020AFF30080070008BF00F072F9009823
:100AD000A04218BF0546C419FFF7C4FF05600746CA
:100AE000F01D20F007004619284600F00AF8B4422D
:100AF00008BFF8BDA21B31463868BDE8F84000F0D9
:100B000025B900210160C0E901107047102070472D
:100B100030B5B0F10A0271F100034FEA900E4EEACF
:100B2000817EB0EB0E0061EB91014FEA101E4EEAA0
:100B3000017E10EB0E0041EB11114FEA102E4EEA30
:100B4000016E10EB0E0041EB11214FEA104E4EEA00
:100B5000014E10EB0E0041EB1141401841F1000134
:100B60004FEAD00040EA41704FEAD1014FEA8104D8
:100B700044EA907410EB800544EB01046D1944EBDA
:100B80000404521BA3414FF0000348BF0A3200D5B2
:100B900030BD401C41F1000130BD00002DE9F041A5
:100BA0001F46044603260168072A01F4006004DB9F
:100BB00008B116A505E016A503E008B115A500E0EB
:100BC00015A521F010002060A069C01EA0610FB122
:100BD000401EA0612046AFF300804FB1D4E901214F
:100BE00038469047206A401C2062C01C206206E004
:100BF000206AFAE7D4E9012115F8010B9047761E27
:100C0000F8D22046AFF30080BDE8F0814E414E009F
:100C10006E616E00494E4600696E66002DE9F04730
:100C2000814616468AB0354878440DC88DE80D00D7
:100C300032487844801C03AC0DC884E80D0041F6AE
:100C40009B300844372190FBF1F290FBF1F5A5F1C0
:100C5000800501FB12041B3C02D56442012000E028
:100C60000020DFF898A080460027FA44AAF1BE0AC7
:100C70000EE0E0070AD03246684607EB4701012341
:100C80000AEB810104F09BFC8DE8070064107F1CD7
:100C9000002CEED1194F7F44AE3F19E0E80715D084
:100CA00007EB04100DF1180A90E80E008AE80E0018
:100CB000C068F04201D1981908903246012306A974
:100CC00003A804F07CFC03AB83E807006D10641CF0
:100CD000002DE3D14FF0010332466946B8F1000F11
:100CE00003A802D004F056FC01E004F068FCC9E956
:100CF0000001C9F808200AB0BDE8F087D44C000014
:100D000010B50446AFF300802046BDE81040FFF761
:100D10004ABA002801D0FFF785BB704710B5002103
:100D200002A000F02DF8012010BD000053494741FA
:100D30004252543A2041626E6F726D616C2074654C
:100D4000726D696E6174696F6E00000003464068E1
:100D50008C46002818BF88423CBF03464068F8D341
:100D600018681844884207D00CF1030020F00700EF
:100D7000001D411A521A0146081D0A60FFF78BBB7D
:100D800070B505460C460A2000E06D1C00F058F8CE
:100D900035B128780028F8D102E0641C00F050F842
:100DA00014B120780028F8D1BDE870400A2000F086
:100DB00047B810B500F04CF8BDE81040FFF7A9BFE8
:100DC0004FF0013C50F8042B51F8043B9A4221D1DA
:100DD000A2EB0C03934313EACC1317D150F8042B66
:100DE00051F8043B9A4215D1A2EB0C03934313EA4A
:100DF000CC130BD150F8042B51F8043B9A4209D183
:100E0000A2EB0C03934313EACC13DBD04FF00000AA
:100E1000704700BFD01A01BAB1FA81F101F0180190
:100E200022FA01F0CB40DBB2C0B2C01AC1F12001FE
:100E30002CFA01F3D11A914311EAC311E6D170479C
:100E400008B569468DF800000320ABBE08BD000060
:100E500010B5012805D0002103A0FFF791FF012064
:100E600010BD09A1F8E7000053494752544D454DC4
:100E70003A204F7574206F662068656170206D653B
:100E80006D6F7279000000003A2048656170206D36
:100E9000656D6F727920636F72727570746564002E
:100EA000FFE7FEE780B540F2A400C2F2000000F0C8
:100EB00099F880BD7047000081B0EFF3108072B6E2
:100EC0000090FFE7FEE7000080B588B007900020A3
:100ED0008DF81B00079890F82100022807D0FFE743
:100EE00007990420886301208DF81B0076E007989D
:100EF0000168086820F00E0008600798016808681B
:100F000020F001000860079800680821C4F202017F
:100F1000884203D1FFE70120059047E00798006869
:100F20001C21C4F20201884203D1FFE71020049083
:100F300039E0079800683021C4F20201884204D1E8
:100F4000FFE74FF4807003902AE00798006844217F
:100F5000C4F20201884204D1FFE74FF480500290AE
:100F60001BE0079800685821C4F20201884204D1AE
:100F7000FFE74FF4803001900CE0079801686C2285
:100F8000C4F202024FF08070914208BF4FF480100B
:100F90000190FFE701980290FFE702980390FFE7B6
:100FA00003980490FFE704980590FFE70598042153
:100FB000C4F2020108600799012081F82100FFE7CF
:100FC0000799002081F82000FFE70798406B20B1C7
:100FD000FFE70798416B8847FFE7FFE79DF81B0095
:100FE00008B080BD80B58EB00D900D98C06B0068C4
:100FF0000C900D98006800680B900C980D99096C86
:10100000C8404007002875D5FFE79DF82C00400731
:1010100000286FD5FFE70D9800680068800600285B
:1010200007D4FFE70D980168086820F00400086005
:10103000FFE70D9800680821C4F20201884203D13D
:10104000FFE704200A9047E00D9800681C21C4F2D5
:101050000201884203D1FFE74020099039E00D9852
:1010600000683021C4F20201884204D1FFE74FF446
:10107000806008902AE00D9800684421C4F20201C3
:10108000884204D1FFE74FF4804007901BE00D98A1
:1010900000685821C4F20201884204D1FFE74FF4EE
:1010A000802006900CE00D9801686C22C4F20202C8
:1010B0004FF08060914208BF4FF480000690FFE738
:1010C00006980790FFE707980890FFE708980990AF
:1010D000FFE709980A90FFE70A980421C4F2020189
:1010E00008600D98C06A20B1FFE70D98C16A884773
:1010F000FFE7B8E00C980D99096CC84080070028FC
:1011000040F18080FFE79DF82C008007002879D50A
:10111000FFE70D9800680068800600280BD4FFE701
:101120000D980168086820F00A0008600D990120F8
:1011300081F82100FFE70D9800680821C4F2020140
:10114000884203D1FFE70220059047E00D98006830
:101150001C21C4F20201884203D1FFE72020049041
:1011600039E00D9800683021C4F20201884204D1B0
:10117000FFE74FF4007003902AE00D9800684421C7
:10118000C4F20201884204D1FFE74FF400500290FC
:101190001BE00D9800685821C4F20201884204D176
:1011A000FFE74FF4003001900CE00D9801686C22CD
:1011B000C4F202024FF00070914208BF4FF40010D9
:1011C0000190FFE701980290FFE702980390FFE784
:1011D00003980490FFE704980590FFE70598042121
:1011E000C4F202010860FFE70D99002081F8200099
:1011F000FFE70D98806A20B1FFE70D98816A884764
:10120000FFE72FE00C980D99096CC84000070028F3
:1012100027D5FFE79DF82C000007002821D5FFE720
:101220000D980168086820F00E0008600D98C26BE8
:10123000016C012000FA01F151600D9988630D994C
:1012400081F82100FFE70D99002081F82000FFE7D9
:101250000D98006B20B1FFE70D98016B8847FFE701
:10126000FFE7FFE7FFE70EB080BD000083B001900D
:1012700000200090019820B9FFE701208DF80B00B5
:1012800047E0019908684FF6F872CBF6FD721044FA
:101290004CF6CD42CCF6CC42A0FB02026FF003002C
:1012A00000EA9200086401990020C4F20200C863B9
:1012B0000199022081F821000198006800680090DF
:1012C000009843F6F0718843009001994868D1F87E
:1012D00008C0CB680A6940EA0C00184310434A6909
:1012E00010438A691043C96901430098084300907C
:1012F0000098019909680860019900208863019AA3
:10130000012182F82110019981F820008DF80B004D
:10131000FFE79DF80B0003B07047000080B584B074
:10132000039000F0C5F902900398019001980130F4
:1013300048B1FFE740F20400C2F2000001780198D2
:1013400008440190FFE7FFE700F0B2F90299401A64
:101350000199884201D2FFE7F6E704B080BD0000A2
:1013600090B00F900E9100200D900990FFE70E981D
:1013700000680D99C840002800F07F81FFE70D99B3
:10138000012088400C900E9800680C9908400B9042
:101390000B980C99884240F06C81FFE70E984068EA
:1013A0000590002851D0FFE7059801283AD0FFE7C3
:1013B000059802283FD0FFE7059803285FD0FFE794
:1013C0000598112832D0FFE70598122838D0FFE79A
:1013D00005980021C1F21101884236D0FFE7059837
:1013E0000021C1F2120188422FD0FFE705980021A9
:1013F000C1F22101884228D0FFE705980021C1F2FF
:101400002201884221D0FFE705980021C1F2310175
:1014100088421AD0FFE705980021C1F232018842C4
:1014200013D02FE00E98C06809902CE00E98C06889
:101430000430099027E00E98C0680830099022E037
:101440000E98C0680C3009901DE00E98806818B99D
:10145000FFE70420099011E00E988068012806D16A
:10146000FFE7082009900C980F99086105E0082013
:1014700009900C980F994861FFE7FFE703E000200F
:10148000099000E0FFE70B98FF2803D8FFE70F98CB
:10149000049003E00F9804300490FFE7049808904C
:1014A0000B98FF2804D8FFE70D988000039006E012
:1014B0000D996FF01F0000EB81000390FFE7039888
:1014C000079008980068079A0F219140884309996E
:1014D00091400843089908600E98C079C00600281A
:1014E00040F1C680FFE7FFE741F21800C4F20200B6
:1014F000016841F001010160006800F00100069000
:101500000698FFE70D9820F003000821C4F20101BE
:1015100040580A900D9800F0030081000F2000FA57
:1015200001F10A9888430A900F9840F60001C4F22E
:101530000101884203D1FFE70020029026E00F98C6
:1015400040F60041C4F20101884203D1FFE70120C7
:10155000019018E00F9841F20001C4F201018842A5
:1015600003D1FFE7022000900AE00F9941F2004208
:10157000C4F201020420914208BF03200090FFE75B
:1015800000980190FFE701980290FFE702980D99FB
:1015900001F00301890000FA01F10A9808430A905A
:1015A0000A980D9921F003010822C4F20102885023
:1015B0000E988079C006002809D5FFE70B9A40F203
:1015C0000841C4F2010108681043086008E00B9A62
:1015D00040F20841C4F20101086890430860FFE747
:1015E0000E9880798006002809D5FFE70B9A40F213
:1015F0000C41C4F2010108681043086008E00B9A2E
:1016000040F20C41C4F20101086890430860FFE712
:101610000E9880798007002809D5FFE70B9A40F2E1
:101620000441C4F2010108681043086008E00B9A05
:1016300040F20441C4F20101086890430860FFE7EA
:101640000E988079C00748B1FFE70B9A40F200413D
:10165000C4F2010108681043086008E00B9A40F2E8
:101660000041C4F20101086890430860FFE7FFE70A
:10167000FFE70D9801300D9079E610B0704700003B
:1016800082B00190ADF802108DF801209DF80100A4
:1016900028B1FFE7BDF802000199086105E0BDF837
:1016A0000200000401990861FFE702B070470000E2
:1016B00040F28810C2F200000068704740F2040057
:1016C000C2F20000027840F28811C2F200010868FC
:1016D000104408607047000080B542F20001C4F277
:1016E0000201086840F010000860032000F096F83E
:1016F0000F2000F005F800F03BF8002080BD00004E
:1017000080B582B0009040F20000C2F20000006894
:1017100040F20401C2F200010A784FF47A71B1FB81
:10172000F2F1B0FBF1F001F083F820B1FFE7012006
:101730008DF8070018E000980F280DD8FFE70099F2
:101740004FF0FF30002200F04FF8009840F20801FF
:10175000C2F20001086003E001208DF8070003E0F9
:1017600000208DF80700FFE79DF8070002B080BD5C
:1017700083B0FFE741F21800C4F20200016841F0B3
:1017800001010160006800F0010002900298FFE78B
:10179000FFE741F21C00C4F20200016841F08051F1
:1017A0000160006800F0805001900198FFE7FFE7BA
:1017B0000421C4F2010108680090009820F0E06064
:1017C0000090009840F00070009000980860FFE7DB
:1017D00003B0704780B582B08DF807009DF907000F
:1017E00003F05AFB02B080BD80B586B08DF81700BB
:1017F000049103920020029003F066FB02909DF991
:101800001700019002980499039A01F0C7FC014661
:10181000019803F061FB06B080BD000080B582B086
:101820000190019803F07AFB02B080BD80B584B0CE
:1018300002900191029820B9FFE701208DF80F0076
:101840001BE1019842F20001C4F20201096801F0B3
:101850000701884216D9FFE742F20000C4F20200F5
:10186000016821F00701019A11430160006800F04E
:1018700007000199884204D0FFE701208DF80F008E
:10188000FBE0FFE702980078800700282AD5FFE7F1
:10189000029800784007002809D5FFE741F20401CB
:1018A000C4F20201086840F4E0600860FFE70298B3
:1018B00000780007002809D5FFE741F20401C4F2CF
:1018C0000201086840F460500860FFE741F204013B
:1018D000C4F20201086820F0F000029A92681043F6
:1018E0000860FFE702980078C007002860D0FFE793
:1018F0000298406801280ED1FFE741F20000C4F2CF
:10190000020000688003002804D4FFE701208DF85E
:101910000F00B2E021E00298406802280ED1FFE7F4
:1019200041F20000C4F2020000688001002804D4E3
:10193000FFE701208DF80F009FE00DE041F200006D
:10194000C4F2020000688007002804D4FFE70120E9
:101950008DF80F0091E0FFE7FFE741F20401C4F2C8
:101960000201086820F00300029A526810430860E0
:10197000FFF79EFE0090FFE741F20400C4F2020070
:10198000006800F00C0002994968B0EB810F0ED09E
:10199000FFE7FFF78DFE0099401A41F28931884236
:1019A00004D3FFE703208DF80F0066E0E4E7FFE7CC
:1019B000019842F20001C4F20201096801F0070136
:1019C000884216D2FFE742F20000C4F2020001682A
:1019D00021F00701019A11430160006800F007003F
:1019E0000199884204D0FFE701208DF80F0044E000
:1019F000FFE702980078400700280CD5FFE741F286
:101A00000401C4F20201086820F4E060029AD2687E
:101A100010430860FFE702980078000700280DD502
:101A2000FFE741F20401C4F20201086820F46050AB
:101A3000029A126940EAC2000860FFE700F022F84B
:101A400041F20401C4F202010968C9B20A0945F66B
:101A50001811C0F60001895CC84040F20001C2F2D2
:101A60000001086040F20800C2F200000068FFF7C1
:101A700047FE00208DF80F00FFE79DF80F0004B02F
:101A800080BD000086B00020059004900390029075
:101A9000019041F20400C4F202000068059005982C
:101AA00000F00C000146009100283FD0FFE70098AD
:101AB000042804D0FFE70098082806D037E041F258
:101AC0000020C0F27A00019037E00598C0F383410E
:101AD00045F62810C0F60000405C02909DF8160004
:101AE000C007C0B1FFE741F20400C4F20200006881
:101AF000C0F3404145F63810C0F60000405C049049
:101B0000029841F20021C0F27A0148430499B0FBE7
:101B1000F1F0039007E0029840F60011C0F23D0199
:101B200048430390FFE70398019006E0FFE741F286
:101B30000020C0F27A000190FFE7019806B07047DC
:101B400080B586B00490049820B9FFE701208DF895
:101B500017002EE304980078C007002800F0AE803C
:101B6000FFE741F20400C4F20200006800F00C003C
:101B7000042813D0FFE741F20400C4F20200006819
:101B800000F00C0008281BD1FFE741F20400C4F26A
:101B900002000068C003002812D5FFE741F20000F0
:101BA000C4F2020000688003002808D5FFE704980B
:101BB000406820B9FFE701208DF81700F9E27CE0CA
:101BC000FFE704984068B0F5803F09D1FFE741F294
:101BD0000001C4F20201086840F48030086032E07D
:101BE0000498406868B9FFE741F20001C4F20201BD
:101BF000086820F480300860086820F480200860BD
:101C000020E004984068B0F5A02F0DD1FFE741F225
:101C10000001C4F20201086840F4802008600868EE
:101C200040F4803008600CE041F20001C4F202018F
:101C3000086820F480300860086820F4802008607C
:101C4000FFE7FFE7FFE7FFE704984068D0B1FFE751
:101C5000FFF72EFD0390FFE741F20000C4F20200FF
:101C60000068800300280CD4FFE7FFF721FD0399EB
:101C7000401A652804D3FFE703208DF8170098E287
:101C8000EAE719E0FFF714FD0390FFE741F20000D7
:101C9000C4F202000068800300280CD5FFE7FFF7BC
:101CA00007FD0399401A652804D3FFE703208DF848
:101CB00017007EE2EAE7FFE7FFE7FFE70498007816
:101CC0008007002840F18D80FFE741F20400C4F254
:101CD0000200006810F00C0F13D0FFE741F204007F
:101CE000C4F20200006800F00C00082829D1FFE7C8
:101CF00041F20400C4F202000068C003002820D4AE
:101D0000FFE741F20000C4F20200006880070028EB
:101D100009D5FFE704980069012804D0FFE70120F6
:101D20008DF8170045E241F20001C4F20201086893
:101D300020F0F800049A526940EAC2000860FFE708
:101D40004EE00498006958B3FFE70021C4F2422135
:101D500001200860FFF7ACFC0390FFE741F20000B0
:101D6000C4F202000068800700280CD4FFE7FFF7E8
:101D70009FFC0399401A032804D3FFE703208DF842
:101D8000170016E2EAE741F20001C4F20201086816
:101D900020F0F800049A526940EAC20008601EE090
:101DA0000021C4F2422100200860FFF781FC03906B
:101DB000FFE741F20000C4F202000068800700283B
:101DC0000CD5FFE7FFF774FC0399401A032804D3EE
:101DD000FFE703208DF81700EBE1EAE7FFE7FFE7F5
:101DE000FFE7049800780007002848D5FFE704982B
:101DF000806918B3FFE740F28041C4F2422101201C
:101E00000860FFF755FC0390FFE741F22400C4F29D
:101E100002000068800700280CD4FFE7FFF748FCA9
:101E20000399401A032804D3FFE703208DF8170015
:101E3000BFE1EAE7012001F0E9F91FE040F280414B
:101E4000C4F2422100200860FFF732FC0390FFE754
:101E500041F22400C4F202000068800700280CD57B
:101E6000FFE7FFF725FC0399401A032804D3FFE797
:101E700003208DF817009CE1EAE7FFE7FFE70498ED
:101E800000784007002840F1D880FFE700208DF857
:101E9000070041F21C00C4F202000068C0000028E4
:101EA00013D4FFE7FFE741F21C00C4F2020001680F
:101EB00041F080510160006800F08050009000986F
:101EC000FFE701208DF80700FFE747F20000C4F2AA
:101ED00000000068C005002822D4FFE747F2000197
:101EE000C4F20001086840F480700860FFF7E0FB6E
:101EF0000390FFE747F20000C4F200000068C0054D
:101F000000280CD4FFE7FFF7D3FB0399401A65289C
:101F100004D3FFE703208DF817004AE1EAE7FFE763
:101F2000FFE70498C068012809D1FFE741F22001CA
:101F3000C4F20201086840F00100086031E0049832
:101F4000C06868B9FFE741F22001C4F202010868E5
:101F500020F001000860086820F0040008601FE01D
:101F60000498C06805280DD1FFE741F22001C4F2B2
:101F70000201086840F004000860086840F00100B1
:101F800008600CE041F22001C4F20201086820F070
:101F900001000860086820F004000860FFE7FFE720
:101FA000FFE7FFE70498C068E0B1FFE7FFF780FBB9
:101FB0000390FFE741F22000C4F2020000688007AE
:101FC00000280ED4FFE7FFF773FB0399401A41F294
:101FD0008931884204D3FFE703208DF81700E8E039
:101FE000E8E71BE0FFF764FB0390FFE741F2200006
:101FF000C4F202000068800700280ED5FFE7FFF753
:1020000057FB0399401A41F28931884204D3FFE714
:1020100003208DF81700CCE0E8E7FFE79DF8070004
:10202000012809D1FFE741F21C01C4F2020108684E
:1020300020F080500860FFE7FFE70498C06900289F
:1020400000F0B380FFE741F20400C4F20200006830
:1020500000F00C00082800F08280FFE70498C069B7
:1020600002285CD1FFE76021C4F242210020086011
:10207000FFF71EFB0390FFE741F20000C4F20200ED
:102080000068800100280CD5FFE7FFF711FB0399DA
:10209000401A032804D3FFE703208DF8170088E0D7
:1020A000EAE70498006AB0F5803F0CD1FFE741F2FF
:1020B0000401C4F20201086820F40030049A926816
:1020C00010430860FFE741F20401C4F2020108680E
:1020D00020F47410049B1A6A5B6A1A431043086068
:1020E0006021C4F2422101200860FFF7E1FA039069
:1020F000FFE741F20000C4F20200006880010028FE
:102100000CD4FFE7FFF7D4FA0399401A032804D34D
:10211000FFE703208DF817004BE0EAE71EE060219F
:10212000C4F2422100200860FFF7C2FA0390FFE7E3
:1021300041F20000C4F202000068800100280CD5C2
:10214000FFE7FFF7B5FA0399401A032804D3FFE726
:1021500003208DF817002CE0EAE7FFE724E004985D
:10216000C069012804D1FFE701208DF8170020E0A5
:1021700041F20400C4F2020000680290029800F4E8
:1021800080300499096A884208D1FFE7029800F478
:1021900070100499496A884204D0FFE701208DF845
:1021A000170006E0FFE7FFE7FFE700208DF81700C4
:1021B000FFE79DF8170006B080BD000081B00090D9
:1021C00001B0704780B586B00590059800684068FA
:1021D000049005980068806803909DF80C0000F05A
:1021E00040010020B0EB911F11D1FFE70398C00719
:1021F00068B1FFE79DF8100000F040010020B0EB4F
:10220000911F04D0FFE70598016C8847D6E09DF840
:102210000C0000F002010020B0EB510F0BD0FFE7E3
:102220009DF810100020B0EBD11F04D0FFE70598F7
:10223000416C8847C2E09DF80C0000F020010020AE
:10224000B0EB511F0AD1FFE79DF80C0000F04001F0
:102250000020B0EB911F00F0B180FFE79DF8100067
:1022600000F020010020B0EB511F00F0A780FFE735
:102270009DF80C0000F040010020B0EB911F28D029
:10228000FFE7059890F85100032813D0FFE7059960
:10229000486D40F004004865FFE700200290059873
:1022A0000068C068029005980068806802900298F3
:1022B000FFE70DE0FFE70020019005980068C06887
:1022C000019005980068806801900198FFE775E02B
:1022D000FFE79DF80C0000F020010020B0EB511F3B
:1022E00015D0FFE70599486D40F001004865FFE70C
:1022F00000200090059800688068009005980168AB
:10230000086820F0400008600098FFE7FFE70598A4
:10231000406D002851D0FFE705980168486820F01B
:10232000E00048600599012081F851009DF81000F7
:102330008007002805D4FFE79DF81000C007B8B358
:10234000FFE705980168486820F003004860059899
:10235000C06CA0B1FFE70598C16C43F25920C0F6EC
:10236000000048630598C06CFEF7AEFD30B1FFE792
:102370000599486D40F040004865FFE7FFE7059884
:10238000806CA0B1FFE70598816C43F25920C0F63C
:10239000000048630598806CFEF796FD30B1FFE7BA
:1023A0000599486D40F040004865FFE7FFE703E00E
:1023B0000598FFF703FFFFE7FFE7FFE706B080BDE3
:1023C00080B584B00290029820B9FFE701208DF813
:1023D0000F006DE00298406A60B9FFE7029840681C
:1023E000B0F5827F01D1FFE703E002990020C861C8
:1023F000FFE705E002990020086102994861FFE7C4
:10240000029900208862029890F8510040B9FFE7D5
:102410000299002081F85000029800F04DF8FFE783
:102420000299022081F8510002980168086820F0A2
:1024300040000860029A019211685068D2F808C002
:10244000D36800F482700CF4044C604403F400631D
:102450001844136903F002031844536903F001039D
:102460001844936903F400731844D36903F03803E4
:102470001844136A03F080031843926A02F400526E
:10248000104308600299488B00F004000968486016
:1024900002980168C86920F40060C86102990020B0
:1024A0004865029A012182F851108DF80F00FFE76C
:1024B0009DF80F0004B080BD80B58AB0099000205F
:1024C00008900790069005900998006843F2000173
:1024D000C4F2010188425CD1FFE7FFE741F2180036
:1024E000C4F20200016841F480510160006800F408
:1024F000805004900498FFE7FFE741F21800C4F20F
:102500000200016841F004010160006800F004006D
:1025100003900398FFE7A020059002200690032077
:10252000089040F60000C4F2010005A9FEF718FF6C
:1025300040F2A400C2F2000002903021C4F2020175
:10254000016010214160002181608022C260016130
:102550004161202181614FF40051C161FEF786FE87
:1025600018B1FFE7FEF7A8FCFFE7FFE7099840F284
:10257000A401C2F20001816409984862FFE72320A8
:10258000019000221146FFF72FF90198FFF722F979
:10259000FFE70AB080BD000080B588B006900591C5
:1025A000ADF81220039300208DF80700FFE706988E
:1025B00090F85000012804D1FFE702208DF81F0099
:1025C00031E10699012081F85000FFE7FFE7FFF7AE
:1025D0006FF80290BDF81200ADF80400069890F86C
:1025E0005100012804D0FFE702208DF807000FE119
:1025F000059820B1FFE7BDF8120020B9FFE70120E0
:102600008DF8070004E10699032081F8510006992E
:10261000002048650599069A1163BDF81210069AC4
:102620009186BDF81210069AD1860699886306999C
:1026300088870699C88706994864069908640698A9
:102640008068B0F5004F0DD1FFE706980168086873
:1026500020F04000086006980168086840F4804057
:102660000860FFE706980068006800F04000402816
:1026700007D0FFE706980168086840F0400008604E
:10268000FFE70698C068B0F5006F4BD1FFE70698EA
:10269000406828B1FFE7BDF8040001280ED1FFE72C
:1026A00006980168006B0088C8600699086B0230C4
:1026B00008630699C88E0138C886FFE7FFE70698C9
:1026C000C08E70B3FFE70698006880688007002816
:1026D0000ED5FFE706980168006B0088C860069970
:1026E000086B023008630699C88E0138C88617E067
:1026F000FEF7DEFF0299401A0399884204D3FFE7F0
:102700000398013018B9FFE7039840B9FFE70320A9
:102710008DF807000699012081F8510078E0FFE765
:10272000CDE74AE00698406828B1FFE7BDF804000D
:1027300001280ED1FFE706980168006B0078087346
:102740000699086B013008630699C88E0138C8865F
:10275000FFE7FFE70698C08E70B3FFE706980068B2
:102760008068800700280ED5FFE706980168006B97
:10277000007808730699086B013008630699C88EC3
:102780000138C88617E0FEF793FF0299401A0399B3
:10279000884204D3FFE70398013018B9FFE7039894
:1027A00040B9FFE703208DF807000699012081F862
:1027B00051002DE0FFE7CDE7FFE706980399029A65
:1027C00000F05AFD20B1FFE7069920204865FFE799
:1027D0000698806870B9FFE7FFE700200090069830
:1027E0000068C068009006980068806800900098B3
:1027F000FFE7FFE70698406D20B1FFE701208DF865
:10280000070004E00699012081F85100FFE7FFE787
:10281000FFE70699002081F85000FFE79DF80700C8
:102820008DF81F00FFE79DF81F0008B080BD000075
:1028300080B582B00190019800F0D8FD02B080BD53
:1028400085B003900291FFE7039890F83C000128BF
:1028500004D1FFE702208DF813005BE0039901200B
:1028600081F83C00FFE7FFE70399022081F83D0073
:1028700003980068406801900398006880680090A1
:10288000019820F0700001900298016801980843B7
:10289000019001980399096848600398006842F61E
:1028A0000041C4F20101884218D0FFE70398006894
:1028B000B0F1804F12D0FFE70398006840F200416A
:1028C000C4F20001884209D0FFE70398006840F68F
:1028D0000001C4F2000188420ED1FFE7009820F009
:1028E000800000900298416800980843009000988A
:1028F000039909688860FFE70399012081F83D008A
:10290000FFE70399002081F83C00FFE700208DF8E5
:102910001300FFE79DF8130005B0704780B582B043
:102920000090009820B9FFE701208DF807003FE0F4
:10293000009890F83D0040B9FFE70099002081F829
:102940003C00009800F038F8FFE70099022081F879
:102950003D00009951F8040B00F078FD009901202A
:1029600081F84600FFE70099012081F83E000099B8
:1029700081F83F00009981F84000009981F84100FA
:10298000FFE7FFE70099012081F84200009981F8F4
:102990004300009981F84400009981F84500FFE761
:1029A0000099012081F83D0000208DF80700FFE725
:1029B0009DF8070002B080BD82B0019001980068C8
:1029C000B0F1804F10D1FFE7FFE741F21C00C4F2E5
:1029D0000200016841F001010160006800F001009F
:1029E00000900098FFE7FFE702B0704783B00190C6
:1029F000019890F83D00012804D0FFE701208DF8F0
:102A00000B0041E00199022081F83D000198006827
:102A100042F60041C4F20101884218D0FFE7019854
:102A20000068B0F1804F12D0FFE70198006840F2D3
:102A30000041C4F20001884209D0FFE70198006814
:102A400040F60001C4F20001884212D1FFE701986C
:102A50000068806800F0070000900098062807D002
:102A6000FFE701980168086840F001000860FFE78F
:102A700006E001980168086840F001000860FFE77F
:102A800000208DF80B00FFE79DF80B0003B07047A6
:102A900080B586B00490039100208DF80B00FFE70D
:102AA000049890F83C00012804D1FFE702208DF83B
:102AB0001700ABE00499012081F83C00FFE7FFE735
:102AC0000499022081F83D00049800688068019014
:102AD000019820F077000190019820F47F40019048
:102AE000019804990968886003980068009000289C
:102AF00072D0FFE7009810286ED0FFE700982028DA
:102B00006AD0FFE70098302866D0FFE70098402899
:102B100055D0FFE70098502837D0FFE7009860288D
:102B200040D0FFE7009870280BD0FFE70098B0F581
:102B3000805F05D0FFE70098B0F5005F16D052E047
:102B400055E004980068039B5A689968DB6800F0B8
:102B500011FD0498006880680190019840F07700AA
:102B60000190019804990968886040E00498006821
:102B7000039B5A689968DB6800F0FCFC04980168C4
:102B8000886840F48040886031E004980068039AC7
:102B90005168D26800F0AAFE04980068502100F045
:102BA00003FD24E004980068039A5168D26800F09D
:102BB000C5FE04980068602100F0F6FC17E0049858
:102BC0000068039A5168D26800F090FE049800688B
:102BD000402100F0E9FC0AE00498006803990968C4
:102BE00000F0E2FC03E001208DF80B00FFE7049900
:102BF000012081F83D00FFE70499002081F83C00A6
:102C0000FFE79DF80B008DF81700FFE79DF8170010
:102C100006B080BD80B586B005900020049003907A
:102C20000290019005980068B0F1804F1BD1FFE73A
:102C3000FFE741F21800C4F20200016841F004010C
:102C40000160006800F0040000900098FFE7022097
:102C500001900290049040F60000C4F2010001A926
:102C6000FEF77EFBFFE706B080BD000080B586B0B2
:102C700004900391029200208DF80700FFE704986A
:102C800090F83C00012804D1FFE702208DF81700DE
:102C900089E00499012081F83C00FFE7FFE70298F2
:102CA00000900C2800F270800099DFE801F0076DB9
:102CB0006D6D206D6D6D3A6D6D6D530004980068FB
:102CC000039900F087FC04980168886940F00800C7
:102CD000886104980168886920F00400886103987D
:102CE00002690498016888691043886150E004987B
:102CF0000068039900F0D6FC04980168886940F4E4
:102D00000060886104980168886920F480608861A7
:102D10000398026904980168886940EA0220886182
:102D200036E004980068039900F028FD04980168D3
:102D3000C86940F00800C86104980168C86920F0BB
:102D40000400C8610398026904980168C8691043C7
:102D5000C8611DE004980068039900F07BFD0498A9
:102D60000168C86940F40060C86104980168C869D6
:102D700020F48060C8610398026904980168C869FA
:102D800040EA0220C86103E001208DF80700FFE758
:102D9000FFE70499002081F83C00FFE79DF8070059
:102DA0008DF81700FFE79DF8170006B080BD000002
:102DB00080B582B00090009820B9FFE701208DF81F
:102DC00007003FE0009890F83D0040B9FFE7009908
:102DD000002081F83C00009800F038F8FFE70099E7
:102DE000022081F83D00009951F8040B00F02EFB01
:102DF0000099012081F84600FFE70099012081F841
:102E00003E00009981F83F00009981F84000009948
:102E100081F84100FFE7FFE70099012081F84200B7
:102E2000009981F84300009981F84400009981F8E5
:102E30004500FFE70099012081F83D0000208DF852
:102E40000700FFE79DF8070002B080BD81B0009049
:102E500001B0704780B58AB008900791079828B9EB
:102E6000FFE7089890F83E0005901CE007980428BA
:102E700005D1FFE7089890F83F00049010E007980C
:102E8000082805D1FFE7089890F84000039004E077
:102E9000089890F841000390FFE703980490FFE73B
:102EA00004980590FFE70598012804D0FFE701206A
:102EB0008DF827007AE0079828B9FFE708990220E3
:102EC00081F83E001EE00798042806D1FFE7089924
:102ED000022081F83F00029012E00798082806D1EE
:102EE000FFE70899022081F84000019005E0089969
:102EF000022081F841000190FFE701980290FFE76E
:102F00000298FFE7089800680799012200F016FB75
:102F10000898006842F60041C4F20101884207D1D6
:102F2000FFE708980168486C40F400404864FFE7F8
:102F30000898006842F60041C4F20101884218D0A6
:102F4000FFE708980068B0F1804F12D0FFE70898BB
:102F5000006840F20041C4F20001884209D0FFE756
:102F60000898006840F60001C4F20001884212D1BE
:102F7000FFE708980068806800F007000690069850
:102F8000062807D0FFE708980168086840F00100AC
:102F90000860FFE706E008980168086840F0010053
:102FA0000860FFE700208DF82700FFE79DF8270065
:102FB0000AB080BDFFE7FEE780B582B0FFE741F2CF
:102FC0001400C4F20200016841F0010101600068D0
:102FD00000F0010001900198FFE70D200090002211
:102FE0001146FEF701FC0098FEF7F4FB02B080BD2D
:102FF00080B58AB000200990089007900690FFE7FE
:1030000041F21800C4F20200016841F020010160A1
:10301000006800F0200005900598FFE7FFE741F207
:103020001800C4F20200016841F004010160006868
:1030300000F0040004900498FFE740F60000C4F29A
:10304000010003901C21019100220292FEF718FB5F
:10305000019A02990398069201220792089102218F
:10306000099106A9FEF77CF90AB080BD80B582B04F
:1030700040F2E800C2F20000019043F20001C4F205
:10308000010101604FF48271416000218160C160E3
:10309000016141614FF4007282610822C2610162E4
:1030A000416281620A21C162FFF78AF918B1FFE724
:1030B000FDF702FFFFE702B080BD000080B58EB0D3
:1030C000002100910D910C910B910A9109910891A9
:1030D000079106910591049103910291019140F2AB
:1030E0004010C2F200004FF080420260472242606E
:1030F000816040F2CF72C26001618161FFF70EFC16
:1031000018B1FFE7FDF7D8FEFFE74FF480500A90B3
:1031100040F24010C2F200000AA9FFF7B9FC18B152
:10312000FFE7FDF7C9FEFFE740F24010C2F20000E2
:10313000FFF73EFE18B1FFE7FDF7BEFEFFE70020F8
:103140000890099040F24010C2F2000008A9FFF771
:1031500077FB18B1FFE7FDF7AFFEFFE760200190B6
:10316000002002900390059040F24010C2F200004F
:1031700001A90422FFF77AFD18B1FFE7FDF79CFED5
:10318000FFE740F24010C2F20000FFF743FD0EB02F
:1031900080BD0000FFE7FEE7FFE7FEE788B007908D
:1031A00006910592079800F0070004900498C0F17A
:1031B0000700052803D3FFE70420019004E00498EA
:1031C000C0F107000190FFE70198039004980430D4
:1031D000062803D8FFE70020009003E00498033896
:1031E0000090FFE70098029006980399012202FAE6
:1031F00001F101390840029B984005999A40013A33
:103200001140084308B070477047000082B0019039
:10321000019840F20001C2F200010968C90844F6B1
:10322000D352C1F26202A1FB0221890948430090F6
:10323000FFE700BFFFE70098411E00910028F8D18A
:10324000FFE702B07047000080B540F2E800C2F22C
:103250000000FEF7B7FF80BD80B582B001900198F5
:10326000406A009000990020C8870099C88600989D
:10327000FEF7A4FF02B080BD80B586B00490039134
:1032800002920498039B02996A46116080210022F1
:1032900000F014F848B1FFE70499486D40F02000B1
:1032A000486503208DF8170003E000208DF8170013
:1032B000FFE79DF8170006B080BD000080B58AB01A
:1032C000DDF830C0089007918DF81B200593059814
:1032D0000190FEF7EDF9024601980C99891A08440D
:1032E0000390FEF7E5F90290039840F20001C2F264
:1032F00000010968C1F3CB3148430490FFE7089807
:103300000068806807990840401AB0FA80F04009C8
:103310009DF81B1088425ED0FFE705980130002819
:1033200058D0FFE7FEF7C4F90299401A0399884282
:1033300004D2FFE70398002842D1FFE7089801680C
:10334000486820F0E000486008984068B0F5827F47
:1033500013D1FFE708988068B0F5004F06D0FFE76B
:1033600008988068B0F5806F07D1FFE7089801687A
:10337000086820F040000860FFE70898806AB0F510
:10338000005F0FD1FFE7FFE708980168086820F4A5
:103390000050086008980168086840F40050086010
:1033A000FFE7FFE70899012081F85100FFE708993E
:1033B000002081F85000FFE703208DF827000EE081
:1033C000049818B9FFE700200390FFE7049801383C
:1033D0000490FFE793E700208DF82700FFE79DF8B2
:1033E00027000AB080BD00007047000080B582B0A1
:1033F000009000980138B0F1807F03D3FFE70120EF
:10340000019019E0009801384EF21401CEF200014B
:1034100008604FF0FF300F2101F05EFD4EF2180101
:10342000CEF20001002008604EF21002CEF200023F
:10343000072111600190FFE7019802B080BD0000F4
:1034400080B5FEF73BF980BD7047000083B0029065
:103450000191029800680090029842F60041C4F27F
:103460000101884215D0FFE70298B0F1804F10D0DB
:10347000FFE7029840F20041C4F20001884208D000
:10348000FFE7029840F60001C4F2000188420AD129
:10349000FFE7009820F070000090019841680098C4
:1034A00008430090FFE7029842F60041C4F2010190
:1034B000884215D0FFE70298B0F1804F10D0FFE7A7
:1034C000029840F20041C4F20001884208D0FFE7B0
:1034D000029840F60001C4F2000188420AD1FFE7D9
:1034E000009820F4407000900198C168009808434B
:1034F0000090FFE7009820F0800001994969084397
:103500000090009802990860019880680299C8624A
:103510000198006802998862029842F60041C4F25C
:103520000101884205D1FFE701980069029908630B
:10353000FFE702990120486103B0704784B003900F
:1035400002910192029800F01F0101208840009032
:10355000009A0399086A904308620198029901F061
:103560001F0100FA01F20399086A1043086204B0CF
:103570007047000085B00490039102920193049873
:1035800080680090009820F47F4000900398029992
:10359000019A41EA022101430098084300900098F3
:1035A0000499886005B0704783B002900191029839
:1035B00080680090009820F07000009001980099B9
:1035C000084340F00700009000980299886003B01B
:1035D0007047000085B0049003910498006A019040
:1035E0000499086A20F0010008620498406800907D
:1035F000049880690290029820F07000029002986E
:1036000020F003000290039801680298084302909A
:10361000019820F002000190039881680198084306
:103620000190049842F60041C4F2010188420ED193
:10363000FFE7019820F0080001900398C168019805
:1036400008430190019820F004000190FFE70498DE
:1036500042F60041C4F20101884213D1FFE700980D
:1036600020F480700090009820F40070009003987F
:1036700041690098084300900398816900980843C5
:103680000090FFE7009804994860029804998861C7
:10369000039840680499486301980499086205B04A
:1036A0007047000085B0049003910498006A01906F
:1036B0000499086A20F0100008620498406800909D
:1036C000049880690290029820F4E04002900298E9
:1036D00020F44070029003980168029840EA0120AB
:1036E0000290019820F020000190039881680198D1
:1036F00040EA01100190049842F60041C4F2010131
:1037000088420FD1FFE7019820F0800001900398D4
:10371000C168019840EA01100190019820F0400032
:103720000190FFE7049842F60041C4F2010188428B
:1037300015D1FFE7009820F480600090009820F4F5
:103740000060009003984169009840EA8100009071
:1037500003988169009840EA81000090FFE7009893
:103760000499486002980499886103984068049914
:10377000886301980499086205B0704785B0049089
:1037800003910498006A01900499086A20F48070FB
:1037900008620498406800900498C06902900298FA
:1037A00020F070000290029820F00300029003982D
:1037B0000168029808430290019820F4007001907B
:1037C00003988168019840EA01200190049842F62C
:1037D0000041C4F2010188420FD1FFE7019820F4B3
:1037E000006001900398C168019840EA01200190AF
:1037F000019820F480600190FFE7049842F60041B0
:10380000C4F20101884215D1FFE7009820F48050EE
:103810000090009820F400500090039841690098AF
:1038200040EA0110009003988169009840EA011075
:103830000090FFE700980499486002980499C861D5
:10384000039840680499C86301980499086205B018
:103850007047000085B0049003910498006A0190BD
:103860000499086A20F48050086204984068009027
:103870000498C0690290029820F4E04002900298F7
:1038800020F44070029003980168029840EA0120F9
:103890000290019820F400500190039881680198EB
:1038A00040EA01300190049842F60041C4F201015F
:1038B00088420BD1FFE7009820F4804000900398E5
:1038C0004169009840EA81100090FFE70098049950
:1038D000486002980499C861039840680499086494
:1038E00001980499086205B07047000085B0049003
:1038F000039102920498006A00900499086A20F0EB
:1039000001000862049880690190019820F0F0009D
:1039100001900299019840EA01100190009820F06E
:103920000A000090039900980843009001980499B8
:10393000886100980499086205B0704785B00490CA
:10394000039102920498006A00900499086A20F09A
:1039500010000862049880690190019820F470407A
:1039600001900299019840EA01300190009820F0FE
:10397000A00000900399009840EA0110009001987F
:103980000499886100980499086205B070470000A6
:10399000FFE7FEE780B501F0F3FA80BD80B590B097
:1039A00006A800902821FCF744FC0098002305930A
:1039B0000493039302930193012206924FF4803102
:1039C000079108930A9202220D920E914FF4E01192
:1039D0000F91FEF7B5F818B1FFE7FDF76DFAFFE7B5
:1039E0000F20019002210291002003904FF4806289
:1039F0000492059001A8FDF719FF18B1FFE7FDF744
:103A00005BFAFFE710B080BD80B584B003908DF8FD
:103A10000B108DF80A20039901918869898B9DF814
:103A20000A30012200929A43FDF72AFE0199086AA2
:103A3000898C0022FDF724FE009A0198C0680DF1E0
:103A40000B014FF0FF33FEF7A7FD009A0199086ABA
:103A5000898CFDF715FE019804B080BD80B586B055
:103A600084460898CDF814C0ADF81210ADF81020B7
:103A7000ADF80E30ADF80C000598009000200290D3
:103A8000BDF80E000190FFE702980199884200F30B
:103A9000A480FFE70098BDF81210019A891ABDF8BA
:103AA0001020029BD21ABDF80C30D0F800C0DCF810
:103AB00014C089B292B2E0470098BDF81210019A82
:103AC0001144BDF81020029BD21ABDF80C30D0F87A
:103AD00000C0DCF814C089B292B2E0470098BDF88B
:103AE0001210029A891ABDF81020019B1A44BDF8E1
:103AF0000C30D0F800C0DCF814C089B292B2E047B4
:103B00000098BDF81210029A891ABDF81020019B86
:103B1000D21ABDF80C30D0F800C0DCF814C089B25D
:103B200092B2E0470098BDF81210019A1144BDF816
:103B30001020029B1A44BDF80C30D0F800C0DCF80D
:103B400014C089B292B2E0470098BDF81210029AF0
:103B50001144BDF81020019BD21ABDF80C30D0F8EA
:103B600000C0DCF814C089B292B2E0470098BDF8FA
:103B70001210029A1144BDF81020019B1A44BDF89E
:103B80000C30D0F800C0DCF814C089B292B2E04723
:103B90000098BDF81210019A891ABDF81020029BF6
:103BA0001A44BDF80C30D0F800C0DCF814C089B25B
:103BB00092B2E0470298013002900298019949437D
:103BC00000FB0010BDF80E104943884204DDFFE7FA
:103BD000019801380190FFE756E7009806B080BDD4
:103BE00080B588B084460A98CDF81CC0069105922D
:103BF0000493ADF80E00079802900020ADF80C0079
:103C0000FFE7BDF80C00BDF80E1088423ADAFFE776
:103C100002980699BDF80C3001EB4301059A02EBBE
:103C20004302437900F040FC02980699BDF80C204D
:103C300031F81230059931F8122069460A601946A8
:103C400000F0CAF802982C210122FFF7DDFE02984D
:103C50000499BDF80C2001EB420149780022019241
:103C6000FFF7D2FE019A02980499BDF80C3011F8C2
:103C70001310FFF7C9FEFFE7BDF80C000130ADF8E7
:103C80000C00BEE7029808B080BD000080B583B08C
:103C900084460598CDF808C0ADF80610ADF80420AC
:103CA000ADF80230ADF80000029803B080BD00000E
:103CB00010B586B00590ADF81210059803904179C3
:103CC0008DF8111000224271018901394389013BAD
:103CD000BDF81240D0F800C0DCF824C0EE46CEF8A3
:103CE00004409BB2CEF800308BB21146E0470398F7
:103CF0009DF81110417106B010BD000080B586B06E
:103D000005900491ADF80E208DF80D3005990291C3
:103D10008869898B9DF80D30012201929A43FDF745
:103D2000AFFC0299086A898C0022FDF7A9FC029871
:103D3000C0680499BDF80E204FF0FF33FEF72CFC4D
:103D4000019A0299086A898CFDF79AFC029806B0DC
:103D500080BD000085B004908DF80F10049802908B
:103D6000C06A48B9FFE702989DF80F100901806A00
:103D7000006840F8341F2CE00298C06A04280AD179
:103D8000FFE702989DF80F100901806A006840F86B
:103D9000381F01901BE00298C06A08280AD1FFE78B
:103DA00002989DF80F100901806A006840F83C1FD6
:103DB000009009E002989DF80F100901806A0068E0
:103DC00040F8401F0090FFE700980190FFE701983E
:103DD000FFE7029805B0704780B590B0844612980E
:103DE000CDF83CC0ADF83A10ADF83820ADF836301B
:103DF000ADF834000F9808900DF13A0002900DF1E3
:103E00003601019100F09AFE01990246029812884B
:103E1000ADF8322000F07EFE0088ADF830000EA82C
:103E200004900DA9039100F089FE039902460498BD
:103E30001288ADF82E2000F06DFE01460898098822
:103E4000ADF82C109DF833108DF82810BDF8321005
:103E50008DF829109DF831108DF82A10BDF830101A
:103E60008DF82B109DF82F108DF82410BDF82E1012
:103E70008DF825109DF82D108DF82610BDF82C100A
:103E80008DF827102A2101220592FFF7BDFD089821
:103E90000AA90422069200230793FFF72FFF059A31
:103EA00008982B21FFF7B0FD069A079B089809A9EF
:103EB000FFF724FF089810B080BD0000B0B58AB0AD
:103EC00094468E46044610980F990E9A0994ADF8C0
:103ED00022E0ADF820C0ADF81E30ADF81C20ADF8E2
:103EE0001A108DF81900099803909DF81900C00761
:103EF000B8B9FFE70398BDF82210BDF820204B1D8C
:103F000002F10B0EBDF81A50D0F800C0DCF820C04A
:103F10006C4665601FFA8EFEC4F800E09BB2E04775
:103F2000FFE70020ADF81600FFE7BDF816000B28EC
:103F300048DCFFE7BDF81E0000EB400145F63A10F3
:103F4000C0F6000000EB8100BDF8161008444FF6E3
:103F50008061CFF6FF71405C8DF815000020ADF850
:103F60001200FFE7BDF81200052824DCFFE79DF8EA
:103F70001500BDF81210C840C007A8B1FFE70398AC
:103F8000BDF82210BDF812201144BDF82020BDF864
:103F900016301A44BDF81C30D0F800C0DCF814C04C
:103FA00089B292B2E047FFE7FFE7BDF812000130A7
:103FB000ADF81200D6E7FFE7BDF816000130ADF806
:103FC0001600B2E703980AB0B0BD0000B0B590B0DB
:103FD000069313468C46864616981599149ACDF882
:103FE0003CE0ADF83AC0ADF83830ADF83620ADF869
:103FF00034108DF833000F9807909DF83300C007F8
:1040000038BBFFE70698BDF83A10039101390491D7
:10401000BDF83810059100F0DDFD039B0499059A69
:104020008446079803EBCC03023BBDF838C00CF183
:104030000B0EBDF83450D0F800C0DCF824C06C463C
:1040400065601FFA8EFEC4F800E09BB289B2E047BB
:10405000FFE706980B900B9800F036FE0A900B983D
:1040600000F01CFE0990FFE70AA809A900F0EAFE8B
:1040700030B3FFE70AA800F07BFD014607980978F6
:104080008DF82310BDF83A10BDF838209DF8233084
:10409000BDF836C0BDF83440EE460125CEF80850D4
:1040A000CEF80440CEF800C0FFF708FFBDF83A0094
:1040B0000830ADF83A00FFE70AA800F0B5FDD3E7F5
:1040C000079810B0B0BD000080B582B00190019893
:1040D000009029210122FFF797FC9620FDF71EF999
:1040E000009802B080BD000080B582B001900198B8
:1040F000009028210122FFF787FC9620FDF70EF99A
:10410000009802B080BD000080B594B01390139861
:104110001290806AFEF76AFC1299886AC96AFEF7F3
:1041200099FE129801680A6940219047129800F0A0
:1041300097F91298112101221192FFF765FC78205E
:10414000FDF7ECF8119A1298B121FFF75DFC129877
:1041500005210F9100221092FFF756FC109A129839
:104160003C210091FFF750FC0099109A1298FFF73C
:104170004BFC119A1298B221FFF746FC0F99109A46
:104180001298FFF741FC0099109A1298FFF73CFC37
:104190000099109A1298FFF737FC119A1298B321E0
:1041A000FFF732FC0F99109A1298FFF72DFC009937
:1041B000109A1298FFF728FC0099109A1298FFF7AE
:1041C00023FC0F99109A1298FFF71EFC0099109A81
:1041D0001298FFF719FC0099109A1298FFF714FC37
:1041E000119A1298B421FFF70FFC109A129803212C
:1041F0000691FFF709FC119A1298C0210191FFF76F
:1042000003FC109A129828210491FFF7FDFB109AE5
:1042100012980821FFF7F8FB109A129804210C91CC
:10422000FFF7F2FB119A1298C121FFF7EDFB0199FC
:10423000109A1298FFF7E8FB119A1298C221FFF723
:10424000E3FB109A12980D210791FFF7DDFB109AFE
:1042500012981146FFF7D8FB119A1298C321FFF765
:10426000D3FB109A12988D210291FFF7CDFB109A83
:1042700012982A210391FFF7C7FB119A1298C421C3
:10428000FFF7C2FB0299109A1298FFF7BDFB109A34
:104290001298EE21FFF7B8FB119A1298C521FFF78B
:1042A000B3FB109A12981A21FFF7AEFB119A1298DD
:1042B0003621FFF7A9FB109A12981146FFF7A4FBCD
:1042C000119A1298E021FFF79FFB0C99109A12980F
:1042D000FFF79AFB109A12982221FFF795FB109A8C
:1042E00012980721FFF790FB109A12980A21FFF706
:1042F0008BFB109A12982E210591FFF785FB109ADF
:1043000012983021FFF780FB109A129825210A910C
:10431000FFF77AFB0399109A1298FFF775FB04993F
:10432000109A1298FFF770FB109A129826210891A4
:10433000FFF76AFB0599109A1298FFF765FB109A30
:1043400012983A210E91FFF75FFB109A12981146CE
:10435000FFF75AFB109A11991298FFF755FB06992F
:10436000109A1298FFF750FB109A129813210D9192
:10437000FFF74AFB119A1298E121FFF745FB0C99D0
:10438000109A1298FFF740FB109A12981621FFF727
:104390003BFB109A12980621FFF736FB0799109AFB
:1043A0001298FFF731FB109A12982D210B91FFF70D
:1043B0002BFB0899109A1298FFF726FB109A129877
:1043C0002321FFF721FB109A129827210991FFF76B
:1043D0001BFB0999109A1298FFF716FB0A99109A7D
:1043E0001298FFF711FB0B99109A1298FFF70CFB2C
:1043F000109A12983B21FFF707FB109A129811466A
:10440000FFF702FB109A11991298FFF7FDFA0C9929
:10441000109A1298FFF7F8FA0D99109A1298FFF770
:10442000F3FA119A12988179CB072021002B18BF3B
:104430002121FFF7E9FA0E99119A1298FFF7E4FA91
:104440000F99109A1298FFF7DFFA119A1298292102
:10445000FFF7DAFA9620FCF761FF129814B080BDDE
:1044600080B584B00390039902910869898A00227B
:10447000FDF706F964200190FCF750FF02990869E6
:10448000898A0122FDF7FCF80198FCF747FF0298A2
:1044900004B080BD82B001908DF8031001989DF8A2
:1044A0000310417102B070478BB00A9009910892D5
:1044B0008DF81F300A98049009980088ADF81C0008
:1044C00008980088ADF81A009DF81F000146059174
:1044D000032800F27B800599DFE801F0020D2B5BD9
:1044E000BDF81C00023009990880BDF81A0001309F
:1044F000089908806AE004980189BDF81A00C04351
:104500000844B0F1FF3F03DCFFE70020039007E021
:1045100004980089BDF81A10401A01300390FFE793
:10452000039809990880BDF81C000130089908809B
:104530004CE004980189BDF81C00C0430844B0F168
:10454000FF3F03DCFFE70020029007E004980089AA
:10455000BDF81C10401A01300290FFE70498029940
:10456000099A11804189BDF81A00C0430844B0F18E
:10457000FF3F03DCFFE70020019006E0049840893C
:10458000BDF81A10401A0190FFE7019808990880B9
:104590001CE00498BDF81A100231099A1180418973
:1045A000BDF81C00C0430844B0F1FF3F03DCFFE747
:1045B0000020009006E00498408909990988401A73
:1045C0000090FFE7009808990880FFE704980BB077
:1045D0007047000010B58EB08C4686461198109931
:1045E000CDF834E0ADF832C0ADF83020ADF82E3063
:1045F000ADF82C10ADF82A000D980090002009901D
:104600000890BDF82E00BDF83210401A0790BDF892
:104610002C00BDF83010401A0690BDF83200029010
:10462000BDF8300001900798012803DBFFE7012067
:1046300004900DE0079818B9FFE70020049006E009
:104640004FF0FF300490079840420790FFE7FFE7E4
:104650000698012803DBFFE7012003900DE0069890
:1046600018B9FFE70020039006E04FF0FF300390F9
:10467000069840420690FFE7FFE7079806998842B0
:1046800003DDFFE70798059002E006980590FFE735
:104690000020ADF82800FFE7BDF82800059901319A
:1046A000884237DAFFE70098BDF80810BDF804200B
:1046B000BDF82A30D0F800C0DCF814C0E0470799F4
:1046C00009980844099006990898084408900998A0
:1046D0000599884209DDFFE705990998401A099074
:1046E0000499029808440290FFE7089805998842C7
:1046F00009DDFFE705990898401A08900399019889
:1047000008440190FFE7FFE7BDF828000130ADF84D
:104710002800C1E700980EB010BD000010B588B0A9
:104720008C4686460B980A99CDF81CE0ADF81AC065
:10473000ADF81820ADF81630ADF81410ADF8120031
:1047400007980390BDF81A10BDF81820BDF8163070
:10475000BDF81240D0F800C0DCF81CC0EE46CEF820
:104760000440CEF80020E0470398BDF81A30BDF8A9
:104770001820BDF81410BDF81240D0F800C0DCF8C5
:104780001CC0EE46CEF80440CEF800101946E047B3
:104790000398BDF81A10BDF81420BDF81630BDF806
:1047A0001240D0F800C0DCF81CC0EE46CEF8044041
:1047B000CEF80020E0470398BDF81630BDF8182069
:1047C000BDF81410BDF81240D0F800C0DCF81CC0D1
:1047D000EE46CEF80440CEF800101946E0470398A4
:1047E00008B010BD10B58AB08C4686460D980C995D
:1047F000CDF824E0ADF822C0ADF82020ADF81E3091
:10480000ADF81C10ADF81A000998059043790DF128
:10481000220108AAFFF748FE059843790DF11E0111
:1048200007AAFFF741FE0598BDF82210BDF8202029
:10483000BDF81E30BDF81CC0EE46CEF800C0FFF734
:10484000CBFA05982C210122FFF7DEF80020ADF805
:104850001800FFE7BDF818000490BDF82200BDF86D
:104860001E10401A00F046F901300390BDF82000F8
:10487000BDF81C10401A00F03DF903990246049857
:1048800001325143884214DAFFE705989DF81B1066
:1048900000220292FFF7B8F8029A05989DF81A10C4
:1048A000FFF7B2F8FFE7BDF818000130ADF81800C7
:1048B000D0E705980AB010BD80B586B00590ADF878
:1048C0001210ADF81020ADF80E3005980290437923
:1048D0000DF1120104AAFFF7E7FD0298BDF81230AE
:1048E000BDF8102069460A601946FFF775FA02986C
:1048F0002C210122FFF788F802989DF80F10002262
:104900000192FFF781F8019A02989DF80E10FFF7C7
:104910007BF8029806B080BDF0B587B09E4614467D
:104920000D46064614981399129A119B109B0F9BE3
:10493000DDF838C0DDF834C00C9F06960595049468
:10494000ADF80EE0ADF80CC0ADF80A30ADF80820B7
:10495000ADF806108DF8050006980090BDF8081017
:10496000BDF806209DF8053003F0010300F01EF8A5
:10497000009845F6B051C0F6000108310160059974
:10498000C16004990161BDF80E1081820C998161AA
:10499000BDF80C1081830E990162BDF80A10818464
:1049A000109981621199C16207B0F0BD83B0029085
:1049B000ADF80610ADF804208DF80330029845F6E6
:1049C000EC51C0F600010831016000210171417114
:1049D0009DF8031001F001018171BDF806100181FD
:1049E000BDF80410418103B07047000082B08DF81B
:1049F00005009DF8050001460091142800F275801D
:104A00000099DFE801F00B1014181D22272C313615
:104A10003B40454A4F54595E63686D004FF6FF7046
:104A2000ADF8060062E00020ADF806005EE01F2051
:104A3000ADF806005AE04FF61F00ADF8060055E04D
:104A40004FF6E070ADF8060050E040F2FF70ADF8B0
:104A500006004BE04FF47840ADF8060046E04FF614
:104A60001F00ADF8060041E04FF4FC60ADF8060011
:104A70003CE047F6FF70ADF8060037E04FF6E07017
:104A8000ADF8060032E04BF64040ADF806002DE0F0
:104A90004FF60740ADF8060028E048F23040ADF888
:104AA000060023E040F2CF10ADF806001EE047F606
:104AB0007C50ADF8060019E045F25840ADF806000C
:104AC00014E048F21F40ADF806000FE04CF2186009
:104AD000ADF806000AE04AF25160ADF8060005E0C4
:104AE00042F61230ADF8060000E0FEDEBDF806002A
:104AF00002B0704782B001900198002803D4FFE70C
:104B00000198009003E0019840420090FFE7009870
:104B100002B0704783B00290019102980088019919
:104B20000988884203DAFFE70198009002E00298C2
:104B30000090FFE7009803B07047000083B0029038
:104B400001910298008801990988884203DAFFE7F9
:104B50000298009002E001980090FFE7009803B0EF
:104B60007047000081B000900098006801B0704765
:104B700081B000900098006801B0704780B582B0A5
:104B80000190019800F038F8406802B080BD000044
:104B900080B582B00190019800F02EF8C07A00F044
:104BA0007F0002B080BD000080B584B00390039800
:104BB000029000F017F828B1FFE70298FFF7DEFF38
:104BC000019004E00298FFF7E3FF0190FFE70198EE
:104BD00004B080BD80B582B001900198FFF7E4FF7A
:104BE00002B080BD80B582B00190019800F004F859
:104BF000C07AC00902B080BD80B582B00190019832
:104C000000F002F802B080BD81B00090009801B0C1
:104C10007047000083B002900191009202980099C1
:104C2000016003B07047000081B0009000980168F7
:104C30000131016001B0704780B582B001900198E8
:104C4000FBF7D8FA02B080BD80B584B0039003981A
:104C50000290FFF7C7FF28B1FFE7029800F00AF8BB
:104C6000019004E0029800F00FF80190FFE701982E
:104C700004B080BD80B582B00190019800F092F838
:104C8000006802B080BD000080B582B0019001983C
:104C900000F088F800F07AF802B080BD80B584B0EA
:104CA000029002980090FFF7CFFF01460098019113
:104CB000FFF77AFF009902460198024403A8FFF724
:104CC000A9FF039804B080BD80B584B0029002981B
:104CD0000190FFF7B9FF0199024603A8FFF79AFF79
:104CE000039804B080BDF0B581B00D464FF6F07169
:104CF000C7F6FF718A421ED2144606460B2A04D21A
:104D000006EB0407F4726CB911E044F00F00471C85
:104D1000384600F0ADF847F00041C6E90004B16044
:104D200007190646304629462246FBF738FB002085
:104D3000387001B0F0BDFBF7E2FA000080B586B034
:104D4000059004910598019003A902AA00F032F899
:104D500004980090FFF770FF009902460198FFF752
:104D6000C2FF019800F036F8019806B080BD10B57A
:104D7000044690F90B00B0F1FF3F05DCA168206804
:104D800021F0004100F072F8204610BD81B0009083
:104D9000009801B07047000081B00090009801B009
:104DA0007047000080B582B00190019800F016F8BD
:104DB00002B080BD80B586B005900491039205983D
:104DC000009000F011F8009800F014F8009806B078
:104DD00080BD000081B0009001B0704781B00090AC
:104DE000009801B07047000082B00090009802B0B7
:104DF0007047000080B584B002900298019000F0E6
:104E000003F8019804B080BD80B582B0019001988C
:104E10000090FFF7C1FF009802B080BD80B584B05C
:104E2000039002910398FFF79DFE01900298FFF70F
:104E300099FE01460198401AB0FA80F0400904B08A
:104E400080BD000080B582B001900091019800996A
:104E5000FFF7E4FF80F0010002B080BD40F2700077
:104E6000C2F2000000687047FBF715BBFFF7FCBFFC
:104E700010B50446002808BF012400BF2046FBF7F8
:104E8000DBFA002818BF10BDFFF7E8FF08B1804724
:104E9000F4E7002010BD000081B08DF803009DF9FB
:104EA000030000280ED4FFE79DF9031001F01F0254
:104EB000012090404A094EF20011CEF2000141F863
:104EC0002200FFE701B070474EF60C50CEF2000012
:104ED0000068C0F30220704782B08DF8070000918F
:104EE0009DF9070000280AD4FFE7009800019DF90A
:104EF00007104EF20042CEF2000288540BE00098F8
:104F000000019DF8071001F00F014EF61452CEF289
:104F100000028854FFE702B07047000083B002909F
:104F2000029800F0070000904EF60C51CEF20001FE
:104F30000868019001984FF6FF0210400190019817
:104F4000009A40EA02200022C0F2FA521043019077
:104F50000198086003B0704701A000F037F800BF67
:104F600050757265207669727475616C2066756E15
:104F70006374696F6E2063616C6C6564210000006E
:104F800080B58AB0684600210162A021C1618021FC
:104F900081610423436140F24011C2F200010161CA
:104FA0001021C16040F60002C4F2010282600821B3
:104FB0004160026040F27400C2F2000040F2E80179
:104FC000C2F20001FFF7A8FC0AB080BDFBF797F919
:104FD00010B590B000240F94FCF77EFBFEF7DEFCCA
:104FE000FEF706F8FDF7E8FFFEF740F8FEF766F873
:104FF000C820FCF793F940F27400C2F2000004905C
:10500000FFF782F804980221FFF744FA05900D207B
:10501000FFF7ECFC014605980268126B90470168A7
:105020000A6932219047069001200790FFF7DEFCC5
:10503000014606980268D2F820C06A46516056219F
:1050400011600A2141226E23E0470A9045F628614B
:10505000C0F600010CA80B90FFF770FE0798FFF751
:10506000C5FC08900F200990FFF7C0FC089A099929
:105070000B9B86460A98EC46CCF80840CCF804E036
:10508000CCF800204622FEF7A1FF0B98FFF76FFE39
:105090004FF4FA60FCF742F9FFE7FEE75FEA400CE5
:1050A00008BF91F0000F4FEA8C234FEAC12243EA78
:1050B00051514FEA1C5018BF00F5F0404FEA300044
:1050C00018BF41F000415FEA6C5C00F02980BCF140
:1050D000FF3F08BF40F080407047130C06BF12042A
:1050E0004FF0100C4FF0000C130E04BF12020CF125
:1050F000080C130F04BF12010CF1040C930F04BF32
:1051000092000CF1020CD30F04BF52000CF1010C01
:1051100011464FF00002A0F11F00A0EB0C007047F9
:1051200011F0004F08BF704731F000413FF4D5AF98
:105130000B0C06BF09044FF0100C4FF0000C0B0EC7
:1051400004BF09020CF1080C0B0F04BF09010CF19C
:10515000040C8B0F04BF89000CF1020CCB0F04BFB1
:1051600049000CF1010CCCF1200322FA03F341EACF
:10517000030102FA0CF2A0EB0C0000F101007047F1
:1051800023F07F4720F07F4C80EA030000F00040CE
:10519000ACEB070303F57C5303F1FF032DE98049D2
:1051A00009B44FEA144324EA03484FEA154B25EAB1
:1051B0000B4E0FF2042606EB13273E7803FB06671F
:1051C000C7F5000707FB06F64FEAD64606F10206CA
:1051D0004FEA543707FB066CCCF1005C4FEA1C47E2
:1051E0002CEA074C0CFB06F507FB06F404EB15460E
:1051F0004FEA961649085FEA320234BF00204FF0AA
:1052000000404FEAD13706FB07FC4FEA1C4C0CFB71
:105210000BF7D21B03FB0CF761EB07010CFB0EF73E
:10522000B0EB074072EB17420CFB08F734BFA2EB60
:105230000742B2EB074261EB17414FEA0C444FEAD9
:10524000910706FB07FC4FEA1C4C0CFB0BF7B0EB7D
:10525000C74072EB573203FB0CF734BFA2EBC742D7
:10526000B2EBC74261EB57310CFB0EF7B0EBC70056
:1052700072EB57720CFB08F734BFA2EBC702B2EB1C
:10528000C70261EB57714FEA816141EA92114FEA1F
:10529000826242EA90124FEA806004EBCC04039FE2
:1052A0004FEAD13706FB07FC4FEA1C4C0CFB0BF70F
:1052B000D21B03FB0CF761EB07010CFB0EF7B0EB05
:1052C000074072EB17420CFB08F734BFA2EB074212
:1052D000B2EB074261EB17414FEA8C5504EB9C247B
:1052E0004FEA910706FB07FC4FEA1C4C0CFB0BF73F
:1052F000B0EBC74072EB573203FB0CF734BFA2EBA5
:10530000C742B2EBC74261EB57310CFB0EF7B0EB73
:10531000C70072EB57720CFB08F734BFA2EBC70251
:10532000B2EBC70261EB57714FEA816141EA92111A
:105330004FEA826242EA90124FEA806015EB4C25F8
:1053400044F100044FEAD13706FB07FC4FEA1C4C3E
:105350000CFB0BF7D21B03FB0CF761EB07010CFBFB
:105360000EF7B0EB074072EB17420CFB08F734BFA7
:10537000A2EB0742B2EB074261EB17414FEA8131E2
:1053800041EA92414FEA823242EA90424FEA80304B
:105390004FEA0C7615EB1C1544F1000448EA034370
:1053A0004EEA0B484FF0000EB2EB080C71EB03070E
:1053B00024BF624639464EEB0E0E4FF0000B00182C
:1053C000524149414BEB0B0BB2EB080C71EB03075D
:1053D0007BF1000B24BF624639464EEB0E0E4FF0B8
:1053E000000B0018524149414BEB0B0BB2EB080C80
:1053F00071EB03077BF1000B24BF624639464EEB8D
:105400000E0E51EA020718BF46F0010616EB0E76A3
:1054100055F1000254F1000103D5BDE88901BDE852
:105420000088BDE88901BDE80048B619524141EB4A
:105430000101A3F10103704780807F7E7D7C7B7A30
:105440007978777676757473727171706F6E6E6D30
:105450006C6C6B6A6A6968686766666564646363D6
:1054600062616160605F5F5E5E5D5D5C5C5B5B5A5C
:105470005A595958585757565655555554545353C9
:1054800052525251515050504F4F4F4E4E4D4D4D24
:105490004C4C4C4B4B4B4A4A4A494949484848476F
:1054A00047474746464645454544444444434343AD
:1054B00043424242424141419C46002B30D4770056
:1054C0002BD04FEA37071CB503B44FF010004FF054
:1054D0001001BAF1000F06D0BCF1000FDCBF40F0A4
:1054E000080040F008014FF000000FBCBDE810407C
:1054F0000BF1010BBBF1010F08BF5FEA170722BFD9
:1055000012F1010211F101014FF0004143F10003DA
:1055100000F0004043EA00007047F9D35708D0E795
:1055200046EA06464FEA164613F1400F1FDD13F117
:10553000200FDFBF16430A46002120335B42BED056
:10554000C3F1200746EA06464FEA164602FA07F775
:1055500046EA070622FA03F2C3F1200701FA07F729
:1055600042EA070221FA03F14FF00003A7E746EAF7
:10557000020646EA06464FEA164646EA0106BCBF60
:1055800046EA0646360C4FF000034FF000024FF09B
:10559000000194E72DE9804C70B49A46934691E857
:1055A000380007C831EA400C48BF34EA430C03D541
:1055B000FFF7E6FDFFF780FFF0BCBDE8008C2DE9AA
:1055C000804C70B49A46934691E8380007C810F0B2
:1055D000804F08BF13F0804F03D100F005F8FFF7AC
:1055E0006BFFF0BCBDE8008C20F07F4723F07F4CC0
:1055F00080EA030000F0004007EB0C03A3F57C53A6
:10560000A3F1FE0392F0000F00F0B38095F0000FBD
:1056100000F077802DE901494FEA114021EA004866
:105620004FEA144624EA064700FB06FC08FB06F690
:1056300007FB08F818EB06484CEB164C00FB07F785
:1056400018EB07484CEB17404FEA124B22EA0B4E7F
:105650004FEA154625EA06470BFB06FC0EFB06F64D
:1056600007FB0EFE1EEB064E4CEB164C0BFB07F732
:105670001EEB074E4CEB174B18EB0B0840F10000EC
:1056800018EB0E0B58EB000840F100008F1A4FF09A
:1056900000014FF000063CBFC943661B14BFB5EBC9
:1056A000040C00213CBFC943F61B4FEA174427EA0C
:1056B00004454FEA1C472CEA074C04FB076205FB34
:1056C00007F70CFB05F616EB074642EB174204FB07
:1056D0000CFC16EB0C4642EB1C421BEB060658EB8F
:1056E000020241414EEA8E0E46EA9E0601D5BDE811
:1056F0000189B619524141EB0101A3F10103BDE853
:1057000001894FEA144524EA05464FEA114721EA88
:10571000074C05FB07F406FB07F70CFB06F111EB42
:10572000074144EB174405FB0CFC11EB0C4144EB27
:105730001C444FEA124722EA074C05FB07F206FB1E
:1057400007F70CFB06F616EB074642EB174205FB84
:105750000CFC16EB0C4642EB1C456A1854F1000198
:1057600048BF7047B619524141EB0101A3F1010353
:10577000704795F0000F37D04FEA114221EA0246F8
:105780004FEA144724EA074C02FB07F106FB07F730
:105790000CFB06F414EB074441EB174102FB0CFC35
:1057A00014EB0C4441EB1C414FEA154725EA074C2A
:1057B00002FB07F506FB07F70CFB06F616EB0746A0
:1057C00045EB174502FB0CFC16EB0C4645EB1C4267
:1057D000121951F1000148BF7047B619524141EB0F
:1057E0000101A3F1010370474FEA144524EA05467D
:1057F0004FEA114721EA074C05FB07F106FB07F7C3
:105800000CFB06F212EB074241EB174105FB0CFCC7
:1058100012EB0C4251EB1C414FF0000648BF7047A1
:10582000921841EB0101A3F101037047490050EACE
:10583000C12018BF04204A0D18BF40F0010040F2FB
:10584000FF72B2EB515F08BF40F00200012808BFB1
:105850000520704710B500290AD00878002807D025
:1058600005487844FBF7ACFA002801D0002010BDB1
:105870000248784410BD0000F6050000EE05000067
:10588000FAF708BF02400000000000A0000000007E
:1058900005400000000000C8000000000C400000AF
:1058A0000000409C00000000194000000020BCBE29
:1058B0000000000034400000BFC91B8E000000043F
:1058C000B5400000504BCFD06607E2CF010000008A
:1058D0006C4100003E8251AADFEEA73401000000B7
:1058E000D9420000DCB5A0E23A301F97FFFFFFFF6E
:1058F000B4450000FD25A0C8E9A3C14FFFFFFFFF8D
:10590000FF3F00000000008000000000FF3F00009B
:105910000000008000000000000000000000000007
:105920000102030406070809020304050607080923
:105930000A0B0C0D0E0F10100102000000000000F9
:10594000000000000000000004040404040000043F
:10595000000014140A000000000000000000000015
:105960000A0A1F0A0A1F0A0A000000040E1505068B
:105970000C14150E0400000012150D152E2C2A1201
:1059800000000000040A0A3615152916000002025C
:1059900001000000000000000000100808040404DA
:1059A0000404080810000204040808080808040495
:1059B000020000000004150E0E1504000000000097
:1059C0000008083E08080000000000000000000079
:1059D00000000202010000000000003F0000000083
:1059E0000000000000000000000000020000002095
:1059F0001010080804040202010000000E11111129
:105A00001111110E00000000040604040404040E29
:105A1000000000000E1111080402011F0000000028
:105A20000E11100C1010110E00000000080C0C0AD2
:105A3000091F081C000000001F01010F1110110EAA
:105A4000000000000C12010D1311110E00000000E7
:105A50001E10080804040404000000000E11110EBA
:105A60001111110E000000000E1111191610090677
:105A7000000000000000040000000004000000001E
:105A800000000004000000040400000010080402EC
:105A9000020408100000000000003F003F0000006A
:105AA00000000000020408101008040200000000BA
:105AB0000E11110804040004000000001C22292D0E
:105AC0002D1D221C0000000004040C0A0A1E1233C3
:105AD000000000000F12120E1212120F0000000040
